:100000000C943C000C94A0000C9459000C945900E2
:100010000C9459000C9459000C9459000C945900FC
:100020000C9459000C9459000C9459000C945900EC
:100030000C9459000C9459000C9459000C945900DC
:100040000C9459000C9459000C94A2020C94590081
:100050000C9459000C9459000C9459000C945900BC
:100060000C9459000C9459000D0A00202000202007
:1000700020000D0A0020200011241FBECFEFD4E085
:10008000DEBFCDBF11E0A0E0B1E0E4EBF8E002C0DC
:1000900005900D92A631B107D9F712E0A6E1B1E0C3
:1000A00001C01D92A432B107E1F70E9430020C9406
:1000B00058040C9400005F989EBD0DB407FEFDCF60
:1000C0008EBD0DB407FEFDCF5F9A08955F989EBD6B
:1000D0000DB407FEFDCF9EB5592F40E08EBD0DB487
:1000E00007FEFDCF2EB55F9A30E0242B352BC901DA
:1000F00008955F981EBC0DB407FEFDCF5F9A8EB5C4
:1001000008955F988EBD0DB407FEFDCF6EBD0DB492
:1001100007FEFDCF5F9A08955F9880EB8EBD0DB40A
:1001200007FEFDCF1EBC0DB407FEFDCF5F9A8EB556
:100130000895239A259A229A249881E58CBD0895E2
:1001400078941F920F920FB60F9211241F932F9342
:100150003F934F935F936F937F938F939F93AF934F
:10016000BF93EF93FF93E8980E94790087FF85C0C3
:1001700080914D018130E9F0813020F0823009F02A
:1001800072C057C011E0109350010E948C00809300
:100190001601982F9D5F90934F01E0915101F091CE
:1001A00052019081992309F05EC010934D01818323
:1001B00064C09091500180914F019817E0F40E9423
:1001C0008C00909116019827909316012091500170
:1001D000233438F4E0915101F0915201E20FF11D06
:1001E000818380915001823011F49F3FE1F58F5F50
:1001F0008093500142C0E0915101F091520182E0A0
:1002000080838091550190E0019681709070809379
:10021000550144E450E0849F9001859F300D949FE8
:10022000300D1124295A3E4F309352012093510131
:100230001AC08091500190914F01891750F4E82F16
:10024000F0E0E152FE4F60818F5F8093500188EBB8
:1002500012C010924E0181E892E80E945B0088EB88
:100260006AEA0E94810010924D018AEC61E80E94C6
:1002700081008AEC63E80E948100E89AFF91EF9187
:10028000BF91AF919F918F917F916F915F914F91AE
:100290003F912F911F910F900FBE0F901F901895B7
:1002A00080914D018823B1F5E89880E090E00E94AC
:1002B0006600E89A90FF04C088EC809300010895DE
:1002C00080910001815080930001882319F581E01D
:1002D0008093000180914E018130E1F4E89881E043
:1002E00092E80E945B008091E1018A5F80934F0158
:1002F0001092500182E080934D018AEA98EB0E94AF
:100300005B008AEA98EB0E945B0081E292E80E941F
:100310005B00E89A089590914E01992369F46093E7
:10032000E1018093E201862780958093E30181E0DB
:1003300080934E0180E8089583E008950F931F9302
:10034000182F062F813488F480914E01882379F488
:1003500024EE31E0C901BA01412F50E00E944F0460
:10036000802F612F0E948B0103C082E001C083E0D7
:100370001F910F910895E0915301F0915401108263
:100380008091560190E001968170907080935601A3
:1003900044E450E0849F9001859F300D949F300D80
:1003A0001124295A3E4F309354012093530108954C
:1003B0005F9A579A0E94990087EE90E80E945B002E
:1003C00081E092E80E945B0080E496EA0E945B0074
:1003D00081E196EC0E945B008CE294E90E945B0054
:1003E0008BEA92EC0E945B0081E89AEC0E945B0031
:1003F00087EF94EC0E945B0080E798E90E945B0025
:1004000080E098EC0E945B0080E090EE0E945B0030
:100410008DE28093DF0184ED8093E00187E591E038
:100420009093540180935301909352018093510112
:1004300081E892E80E945B00E9E6F0E0808182605A
:10044000808380E090E00E946600E09A81E89AEC68
:100450000E945B0083E89AEC0E945B00E89A089592
:100460005F926F927F928F929F92AF92BF92CF9244
:10047000DF92EF92FF920F931F93DF93CF93CDB74D
:10048000DEB7C150D1400FB6F894DEBF0FBECDBF6E
:100490000E94E7020E94D8017894399A389A4198CC
:1004A000409899248824AA24A3947E010894E11CEE
:1004B000F11C8E010E5F1F4F92E0B92EE0915301A7
:1004C000F091540180818230E9F484E0C82ED12C6F
:1004D000CE0EDF1E7180872D0E940403662408C0A3
:1004E000F60151906F01852D0E94040365247A94D2
:1004F0007720B1F788B18A2588B9862D0E94040338
:100500000E94BB01C7010E9421048130C1F489818E
:10051000882019F4882E992412C0F801E90DF11DE4
:100520008083981459F4892D60E0A8010E949E01EF
:1005300088B18B2588B99924882401C093940E949E
:100540005001BCCF1F920F920FB60F9211242F9320
:100550003F938F939F93EF93FF9380911701909117
:1005600018012091190130911A01821B930B97FDFC
:10057000C29681339105F4F4E0911701F0911801CE
:100580008091C60080838091170190911801019697
:100590009093180180931701809117019091180191
:1005A00021E08D34920741F4C29790931801809313
:1005B000170102C08091C600FF91EF919F918F912A
:1005C0003F912F910F900FBE0F901F901895109292
:1005D000C5008CE08093C40088E98093C10086E068
:1005E0008093C20080E88093C0008BE191E09093FB
:1005F0001A01809319018091190190911A01909329
:1006000018018093170108959091C00095FFFCCFC9
:100610008093C6000895EF92FF92CF93DF93E82E68
:10062000E7017E01F92EE70102C00E9404038991CF
:100630008823D9F7DF91CF91FF90EF900895CF9362
:10064000DF93EC0103C00E9404032196FE01849114
:100650008823C9F7DF91CF910895AF92BF92CF92CF
:10066000DF92EF92FF920F931F93DF93CF93CDB75B
:10067000DEB765970FB6F894DEBF0FBECDBF6C0135
:10068000DE011596E1E0F1E081E101900D928150EB
:10069000E1F78091120190911301A0911401B091A2
:1006A000150189839A83AB83BC83062F172F85E0BE
:1006B000E82EF12CEC0EFD1E5E010894A11CB11C6D
:1006C00016C0F60181916F01982F92959F70F701E6
:1006D000E90FF11D908199838F70F701E80FF11DEB
:1006E00080818A83C5010E940B03015010400115CF
:1006F000110539F765960FB6F894DEBF0FBECDBF72
:10070000CF91DF911F910F91FF90EF90DF90CF90ED
:10071000BF90AF900895EF92FF920F931F93CF93E6
:10072000DF93E62EE7017E01F72EE701082F192F50
:100730000BC0F80181918F01982F9052913608F0EB
:100740008EE20E9404032197209799F7DF91CF91C1
:100750001F910F91FF90EF900895DF92EF92FF921B
:100760000F931F93CF93DF93EC018B0115C0CE0144
:1007700060E170E00E942D0385E790E00E941F0376
:10078000CE0160E170E00E948B0382E790E00E945E
:100790001F030051104060960131110544F7CE014E
:1007A000B8010E942D03DD2490E1E92EF12CE01A1E
:1007B000F10A05C08EE690E00E941F03D3948D2DB0
:1007C00090E08E159F05B4F38BE690E00E941F0326
:1007D000CE01B8010E948B0388E690E00E941F03BF
:1007E000DF91CF911F910F91FF90EF90DF900895CF
:1007F00020911701309118018091190190911A01EF
:1008000028173907A9F3E0911901F0911A018081A5
:100810002091190130911A012F5F3F4F30931A0137
:10082000209319012091190130911A0191E02D3482
:10083000390731F42253304030931A0120931901C3
:10084000089540911701509118012091190130919C
:100850001A0142175307F9F0E0911901F0911A01BA
:100860002081FC0120838091190190911A01019649
:1008700090931A01809319018091190190911A01A6
:10088000F1E08D349F0749F4C29790931A01809349
:10089000190181E0089580E0089581E00895FB0149
:1008A000DC0102C001900D9241505040D8F70895EC
:0408B000F894FFCFEA
:1008B40010303132333435363738394142434445C8
:0608C40046005858200018
:00000001FF
