:103E0000112484B714BE81FF04D185E08093810022
:103E100082E08093C00088E18093C10086E08093B7
:103E2000C20089E18093C40089E2DDD0389A399AD2
:103E3000419A06E0A8E1EA2EAEEFFA2E11E0F092E8
:103E40008500E092840016BB01C0B7D0B09BFDCFC7
:103E5000309AB3D0015099F788249924CC24C39484
:103E6000F5E0DF2EE1E1EE2E73E0F72EAFD08134E6
:103E700089F4ACD08983BDD08981823819F484E07B
:103E80009ED098C0813819F484E099D093C083E023
:103E900096D090C0823419F484E1B3D08BC08534BD
:103EA00019F485E0AED086C0853569F48FD0082F2F
:103EB00010E08CD090E0982E8824802A912A880CDB
:103EC000991C97D077C0863529F484E09AD080E099
:103ED00076D070C0843609F043C078D077D0B82E41
:103EE00075D080E0881688E3980630F4F401F7BEB8
:103EF000E89500E011E002C000E011E067D0F801B1
:103F000081938F01BE16D1F7F0E08F16F8E39F067C
:103F100018F0F401F7BEE8956CD007B600FCFDCFB1
:103F2000F401A0E0B1E02C9130E011968C91119752
:103F300090E0982F8827822B932B12960C01C7BEF6
:103F4000E8951124329681E0A038B80761F7F401B2
:103F5000D7BEE89507B600FCFDCFE7BEE8952AC0BE
:103F60008437B9F433D032D0A82E30D042D0BA2C16
:103F7000F40101C0F8018F010F5F1F4F84911FD022
:103F8000BA94C1F70894811C911CAA948A0C911CC4
:103F900011C0853741F42DD08EE111D084E90FD0C6
:103FA00086E00DD007C0813521F488E01CD021D0F7
:103FB00001C01FD080E103D059CFA89508959091FA
:103FC000C00095FFFCCF8093C6000895309A809181
:103FD000C00087FFFCCF8091C00084FFEEDF80919E
:103FE000C600309A0895E0E6F0E098E1908380837F
:103FF0000895ECDF803219F088E0F5DFFFCF84E12F
:10400000DECF1F93182FE2DF1150E9F7F2DF1F9187
:0C401000089580E0E8DFEE27FF27099408
:0400000300003E00BB
:00000001FF
